{
  "_format": "hh-sol-artifact-1",
  "contractName": "MintAndStake",
  "sourceName": "contracts/MintAndStake.sol",
  "abi": [
    {
      "inputs": [
        {
          "internalType": "string",
          "name": "name",
          "type": "string"
        },
        {
          "internalType": "string",
          "name": "symbol",
          "type": "string"
        },
        {
          "internalType": "address",
          "name": "_stakingToken",
          "type": "address"
        },
        {
          "internalType": "uint256",
          "name": "_mintAmount",
          "type": "uint256"
        },
        {
          "internalType": "uint256",
          "name": "_lockUntil",
          "type": "uint256"
        },
        {
          "internalType": "uint256",
          "name": "_stakingDeadline",
          "type": "uint256"
        }
      ],
      "stateMutability": "nonpayable",
      "type": "constructor"
    },
    {
      "anonymous": false,
      "inputs": [
        {
          "indexed": true,
          "internalType": "address",
          "name": "owner",
          "type": "address"
        },
        {
          "indexed": true,
          "internalType": "address",
          "name": "spender",
          "type": "address"
        },
        {
          "indexed": false,
          "internalType": "uint256",
          "name": "value",
          "type": "uint256"
        }
      ],
      "name": "Approval",
      "type": "event"
    },
    {
      "anonymous": false,
      "inputs": [
        {
          "indexed": true,
          "internalType": "address",
          "name": "previousOwner",
          "type": "address"
        },
        {
          "indexed": true,
          "internalType": "address",
          "name": "newOwner",
          "type": "address"
        }
      ],
      "name": "OwnershipTransferred",
      "type": "event"
    },
    {
      "anonymous": false,
      "inputs": [
        {
          "indexed": true,
          "internalType": "address",
          "name": "user",
          "type": "address"
        },
        {
          "indexed": false,
          "internalType": "uint256",
          "name": "amount",
          "type": "uint256"
        }
      ],
      "name": "TokensMinted",
      "type": "event"
    },
    {
      "anonymous": false,
      "inputs": [
        {
          "indexed": true,
          "internalType": "address",
          "name": "user",
          "type": "address"
        },
        {
          "indexed": false,
          "internalType": "uint256",
          "name": "amount",
          "type": "uint256"
        }
      ],
      "name": "TokensStaked",
      "type": "event"
    },
    {
      "anonymous": false,
      "inputs": [
        {
          "indexed": true,
          "internalType": "address",
          "name": "user",
          "type": "address"
        },
        {
          "indexed": false,
          "internalType": "uint256",
          "name": "amount",
          "type": "uint256"
        }
      ],
      "name": "TokensUnstaked",
      "type": "event"
    },
    {
      "anonymous": false,
      "inputs": [
        {
          "indexed": true,
          "internalType": "address",
          "name": "from",
          "type": "address"
        },
        {
          "indexed": true,
          "internalType": "address",
          "name": "to",
          "type": "address"
        },
        {
          "indexed": false,
          "internalType": "uint256",
          "name": "value",
          "type": "uint256"
        }
      ],
      "name": "Transfer",
      "type": "event"
    },
    {
      "inputs": [
        {
          "internalType": "address",
          "name": "owner",
          "type": "address"
        },
        {
          "internalType": "address",
          "name": "spender",
          "type": "address"
        }
      ],
      "name": "allowance",
      "outputs": [
        {
          "internalType": "uint256",
          "name": "",
          "type": "uint256"
        }
      ],
      "stateMutability": "view",
      "type": "function"
    },
    {
      "inputs": [
        {
          "internalType": "address",
          "name": "spender",
          "type": "address"
        },
        {
          "internalType": "uint256",
          "name": "amount",
          "type": "uint256"
        }
      ],
      "name": "approve",
      "outputs": [
        {
          "internalType": "bool",
          "name": "",
          "type": "bool"
        }
      ],
      "stateMutability": "nonpayable",
      "type": "function"
    },
    {
      "inputs": [
        {
          "internalType": "address",
          "name": "account",
          "type": "address"
        }
      ],
      "name": "balanceOf",
      "outputs": [
        {
          "internalType": "uint256",
          "name": "",
          "type": "uint256"
        }
      ],
      "stateMutability": "view",
      "type": "function"
    },
    {
      "inputs": [],
      "name": "decimals",
      "outputs": [
        {
          "internalType": "uint8",
          "name": "",
          "type": "uint8"
        }
      ],
      "stateMutability": "view",
      "type": "function"
    },
    {
      "inputs": [
        {
          "internalType": "address",
          "name": "spender",
          "type": "address"
        },
        {
          "internalType": "uint256",
          "name": "subtractedValue",
          "type": "uint256"
        }
      ],
      "name": "decreaseAllowance",
      "outputs": [
        {
          "internalType": "bool",
          "name": "",
          "type": "bool"
        }
      ],
      "stateMutability": "nonpayable",
      "type": "function"
    },
    {
      "inputs": [
        {
          "internalType": "address",
          "name": "spender",
          "type": "address"
        },
        {
          "internalType": "uint256",
          "name": "addedValue",
          "type": "uint256"
        }
      ],
      "name": "increaseAllowance",
      "outputs": [
        {
          "internalType": "bool",
          "name": "",
          "type": "bool"
        }
      ],
      "stateMutability": "nonpayable",
      "type": "function"
    },
    {
      "inputs": [],
      "name": "lockUntil",
      "outputs": [
        {
          "internalType": "uint256",
          "name": "",
          "type": "uint256"
        }
      ],
      "stateMutability": "view",
      "type": "function"
    },
    {
      "inputs": [],
      "name": "mintAmount",
      "outputs": [
        {
          "internalType": "uint256",
          "name": "",
          "type": "uint256"
        }
      ],
      "stateMutability": "view",
      "type": "function"
    },
    {
      "inputs": [
        {
          "internalType": "uint256",
          "name": "stakeAmount",
          "type": "uint256"
        }
      ],
      "name": "mintAndStake",
      "outputs": [],
      "stateMutability": "nonpayable",
      "type": "function"
    },
    {
      "inputs": [],
      "name": "name",
      "outputs": [
        {
          "internalType": "string",
          "name": "",
          "type": "string"
        }
      ],
      "stateMutability": "view",
      "type": "function"
    },
    {
      "inputs": [],
      "name": "owner",
      "outputs": [
        {
          "internalType": "address",
          "name": "",
          "type": "address"
        }
      ],
      "stateMutability": "view",
      "type": "function"
    },
    {
      "inputs": [],
      "name": "renounceOwnership",
      "outputs": [],
      "stateMutability": "nonpayable",
      "type": "function"
    },
    {
      "inputs": [
        {
          "internalType": "address",
          "name": "",
          "type": "address"
        }
      ],
      "name": "stakedBalances",
      "outputs": [
        {
          "internalType": "uint256",
          "name": "",
          "type": "uint256"
        }
      ],
      "stateMutability": "view",
      "type": "function"
    },
    {
      "inputs": [],
      "name": "stakingDeadline",
      "outputs": [
        {
          "internalType": "uint256",
          "name": "",
          "type": "uint256"
        }
      ],
      "stateMutability": "view",
      "type": "function"
    },
    {
      "inputs": [],
      "name": "stakingToken",
      "outputs": [
        {
          "internalType": "contract IERC20",
          "name": "",
          "type": "address"
        }
      ],
      "stateMutability": "view",
      "type": "function"
    },
    {
      "inputs": [],
      "name": "symbol",
      "outputs": [
        {
          "internalType": "string",
          "name": "",
          "type": "string"
        }
      ],
      "stateMutability": "view",
      "type": "function"
    },
    {
      "inputs": [],
      "name": "totalSupply",
      "outputs": [
        {
          "internalType": "uint256",
          "name": "",
          "type": "uint256"
        }
      ],
      "stateMutability": "view",
      "type": "function"
    },
    {
      "inputs": [
        {
          "internalType": "address",
          "name": "to",
          "type": "address"
        },
        {
          "internalType": "uint256",
          "name": "amount",
          "type": "uint256"
        }
      ],
      "name": "transfer",
      "outputs": [
        {
          "internalType": "bool",
          "name": "",
          "type": "bool"
        }
      ],
      "stateMutability": "nonpayable",
      "type": "function"
    },
    {
      "inputs": [
        {
          "internalType": "address",
          "name": "from",
          "type": "address"
        },
        {
          "internalType": "address",
          "name": "to",
          "type": "address"
        },
        {
          "internalType": "uint256",
          "name": "amount",
          "type": "uint256"
        }
      ],
      "name": "transferFrom",
      "outputs": [
        {
          "internalType": "bool",
          "name": "",
          "type": "bool"
        }
      ],
      "stateMutability": "nonpayable",
      "type": "function"
    },
    {
      "inputs": [
        {
          "internalType": "address",
          "name": "newOwner",
          "type": "address"
        }
      ],
      "name": "transferOwnership",
      "outputs": [],
      "stateMutability": "nonpayable",
      "type": "function"
    },
    {
      "inputs": [],
      "name": "withdrawStake",
      "outputs": [],
      "stateMutability": "nonpayable",
      "type": "function"
    }
  ],
  "bytecode": "0x60806040523480156200001157600080fd5b5060405162002afc38038062002afc833981810160405281019062000037919062000427565b858581600390816200004a919062000742565b5080600490816200005c919062000742565b5050506200007f620000736200012660201b60201c565b6200012e60201b60201c565b83600660006101000a81548173ffffffffffffffffffffffffffffffffffffffff021916908373ffffffffffffffffffffffffffffffffffffffff1602179055508260078190555081600881905550806009819055508082116200011a576040517f08c379a00000000000000000000000000000000000000000000000000000000081526004016200011190620008b0565b60405180910390fd5b505050505050620008d2565b600033905090565b6000600560009054906101000a900473ffffffffffffffffffffffffffffffffffffffff16905081600560006101000a81548173ffffffffffffffffffffffffffffffffffffffff021916908373ffffffffffffffffffffffffffffffffffffffff1602179055508173ffffffffffffffffffffffffffffffffffffffff168173ffffffffffffffffffffffffffffffffffffffff167f8be0079c531659141344cd1fd0a4f28419497f9722a3daafe3b4186f6b6457e060405160405180910390a35050565b6000604051905090565b600080fd5b600080fd5b600080fd5b600080fd5b6000601f19601f8301169050919050565b7f4e487b7100000000000000000000000000000000000000000000000000000000600052604160045260246000fd5b6200025d8262000212565b810181811067ffffffffffffffff821117156200027f576200027e62000223565b5b80604052505050565b600062000294620001f4565b9050620002a2828262000252565b919050565b600067ffffffffffffffff821115620002c557620002c462000223565b5b620002d08262000212565b9050602081019050919050565b60005b83811015620002fd578082015181840152602081019050620002e0565b60008484015250505050565b6000620003206200031a84620002a7565b62000288565b9050828152602081018484840111156200033f576200033e6200020d565b5b6200034c848285620002dd565b509392505050565b600082601f8301126200036c576200036b62000208565b5b81516200037e84826020860162000309565b91505092915050565b600073ffffffffffffffffffffffffffffffffffffffff82169050919050565b6000620003b48262000387565b9050919050565b620003c681620003a7565b8114620003d257600080fd5b50565b600081519050620003e681620003bb565b92915050565b6000819050919050565b6200040181620003ec565b81146200040d57600080fd5b50565b6000815190506200042181620003f6565b92915050565b60008060008060008060c08789031215620004475762000446620001fe565b5b600087015167ffffffffffffffff81111562000468576200046762000203565b5b6200047689828a0162000354565b965050602087015167ffffffffffffffff8111156200049a576200049962000203565b5b620004a889828a0162000354565b9550506040620004bb89828a01620003d5565b9450506060620004ce89828a0162000410565b9350506080620004e189828a0162000410565b92505060a0620004f489828a0162000410565b9150509295509295509295565b600081519050919050565b7f4e487b7100000000000000000000000000000000000000000000000000000000600052602260045260246000fd5b600060028204905060018216806200055457607f821691505b6020821081036200056a57620005696200050c565b5b50919050565b60008190508160005260206000209050919050565b60006020601f8301049050919050565b600082821b905092915050565b600060088302620005d47fffffffffffffffffffffffffffffffffffffffffffffffffffffffffffffffff8262000595565b620005e0868362000595565b95508019841693508086168417925050509392505050565b6000819050919050565b6000620006236200061d6200061784620003ec565b620005f8565b620003ec565b9050919050565b6000819050919050565b6200063f8362000602565b620006576200064e826200062a565b848454620005a2565b825550505050565b600090565b6200066e6200065f565b6200067b81848462000634565b505050565b5b81811015620006a3576200069760008262000664565b60018101905062000681565b5050565b601f821115620006f257620006bc8162000570565b620006c78462000585565b81016020851015620006d7578190505b620006ef620006e68562000585565b83018262000680565b50505b505050565b600082821c905092915050565b60006200071760001984600802620006f7565b1980831691505092915050565b600062000732838362000704565b9150826002028217905092915050565b6200074d8262000501565b67ffffffffffffffff81111562000769576200076862000223565b5b6200077582546200053b565b62000782828285620006a7565b600060209050601f831160018114620007ba5760008415620007a5578287015190505b620007b1858262000724565b86555062000821565b601f198416620007ca8662000570565b60005b82811015620007f457848901518255600182019150602085019450602081019050620007cd565b8683101562000814578489015162000810601f89168262000704565b8355505b6001600288020188555050505b505050505050565b600082825260208201905092915050565b7f4c6f636b20706572696f64206d75737420657874656e64206265796f6e64207360008201527f74616b696e6720646561646c696e650000000000000000000000000000000000602082015250565b600062000898602f8362000829565b9150620008a5826200083a565b604082019050919050565b60006020820190508181036000830152620008cb8162000889565b9050919050565b61221a80620008e26000396000f3fe608060405234801561001057600080fd5b50600436106101375760003560e01c8063715018a6116100b8578063a9059cbb1161007c578063a9059cbb14610356578063bed9d86114610386578063d960b37a14610390578063dd62ed3e146103ac578063dfd5d6b1146103dc578063f2fde38b146103fa57610137565b8063715018a6146102c257806372f702f3146102cc5780638da5cb5b146102ea57806395d89b4114610308578063a457c2d71461032657610137565b8063313ce567116100ff578063313ce5671461020857806339509351146102265780633c78929e146102565780635a2bcc181461027457806370a082311461029257610137565b806306fdde031461013c578063095ea7b31461015a5780631460fa871461018a57806318160ddd146101ba57806323b872dd146101d8575b600080fd5b610144610416565b6040516101519190611513565b60405180910390f35b610174600480360381019061016f91906115ce565b6104a8565b6040516101819190611629565b60405180910390f35b6101a4600480360381019061019f9190611644565b6104cb565b6040516101b19190611680565b60405180910390f35b6101c26104e3565b6040516101cf9190611680565b60405180910390f35b6101f260048036038101906101ed919061169b565b6104ed565b6040516101ff9190611629565b60405180910390f35b61021061051c565b60405161021d919061170a565b60405180910390f35b610240600480360381019061023b91906115ce565b610525565b60405161024d9190611629565b60405180910390f35b61025e61055c565b60405161026b9190611680565b60405180910390f35b61027c610562565b6040516102899190611680565b60405180910390f35b6102ac60048036038101906102a79190611644565b610568565b6040516102b99190611680565b60405180910390f35b6102ca6105b0565b005b6102d46105c4565b6040516102e19190611784565b60405180910390f35b6102f26105ea565b6040516102ff91906117ae565b60405180910390f35b610310610614565b60405161031d9190611513565b60405180910390f35b610340600480360381019061033b91906115ce565b6106a6565b60405161034d9190611629565b60405180910390f35b610370600480360381019061036b91906115ce565b61071d565b60405161037d9190611629565b60405180910390f35b61038e610740565b005b6103aa60048036038101906103a591906117c9565b610981565b005b6103c660048036038101906103c191906117f6565b610bfc565b6040516103d39190611680565b60405180910390f35b6103e4610c83565b6040516103f19190611680565b60405180910390f35b610414600480360381019061040f9190611644565b610c89565b005b60606003805461042590611865565b80601f016020809104026020016040519081016040528092919081815260200182805461045190611865565b801561049e5780601f106104735761010080835404028352916020019161049e565b820191906000526020600020905b81548152906001019060200180831161048157829003601f168201915b5050505050905090565b6000806104b3610d0c565b90506104c0818585610d14565b600191505092915050565b600a6020528060005260406000206000915090505481565b6000600254905090565b6000806104f8610d0c565b9050610505858285610edd565b610510858585610f69565b60019150509392505050565b60006012905090565b600080610530610d0c565b90506105518185856105428589610bfc565b61054c91906118c5565b610d14565b600191505092915050565b60085481565b60075481565b60008060008373ffffffffffffffffffffffffffffffffffffffff1673ffffffffffffffffffffffffffffffffffffffff168152602001908152602001600020549050919050565b6105b86111df565b6105c2600061125d565b565b600660009054906101000a900473ffffffffffffffffffffffffffffffffffffffff1681565b6000600560009054906101000a900473ffffffffffffffffffffffffffffffffffffffff16905090565b60606004805461062390611865565b80601f016020809104026020016040519081016040528092919081815260200182805461064f90611865565b801561069c5780601f106106715761010080835404028352916020019161069c565b820191906000526020600020905b81548152906001019060200180831161067f57829003601f168201915b5050505050905090565b6000806106b1610d0c565b905060006106bf8286610bfc565b905083811015610704576040517f08c379a00000000000000000000000000000000000000000000000000000000081526004016106fb9061196b565b60405180910390fd5b6107118286868403610d14565b60019250505092915050565b600080610728610d0c565b9050610735818585610f69565b600191505092915050565b600854421015610785576040517f08c379a000000000000000000000000000000000000000000000000000000000815260040161077c906119fd565b60405180910390fd5b6000600a60003373ffffffffffffffffffffffffffffffffffffffff1673ffffffffffffffffffffffffffffffffffffffff1681526020019081526020016000205490506000811161080c576040517f08c379a000000000000000000000000000000000000000000000000000000000815260040161080390611a69565b60405180910390fd5b6000600a60003373ffffffffffffffffffffffffffffffffffffffff1673ffffffffffffffffffffffffffffffffffffffff16815260200190815260200160002081905550600660009054906101000a900473ffffffffffffffffffffffffffffffffffffffff1673ffffffffffffffffffffffffffffffffffffffff1663a9059cbb33836040518363ffffffff1660e01b81526004016108ae929190611a89565b6020604051808303816000875af11580156108cd573d6000803e3d6000fd5b505050506040513d601f19601f820116820180604052508101906108f19190611ade565b610930576040517f08c379a000000000000000000000000000000000000000000000000000000000815260040161092790611b57565b60405180910390fd5b3373ffffffffffffffffffffffffffffffffffffffff167f9845e367b683334e5c0b12d7b81721ac518e649376fa65e3d68324e8f34f2679826040516109769190611680565b60405180910390a250565b60095442106109c5576040517f08c379a00000000000000000000000000000000000000000000000000000000081526004016109bc90611bc3565b60405180910390fd5b6008544210610a09576040517f08c379a0000000000000000000000000000000000000000000000000000000008152600401610a0090611c2f565b60405180910390fd5b600660009054906101000a900473ffffffffffffffffffffffffffffffffffffffff1673ffffffffffffffffffffffffffffffffffffffff166323b872dd3330846040518463ffffffff1660e01b8152600401610a6893929190611c4f565b6020604051808303816000875af1158015610a87573d6000803e3d6000fd5b505050506040513d601f19601f82011682018060405250810190610aab9190611ade565b610aea576040517f08c379a0000000000000000000000000000000000000000000000000000000008152600401610ae190611cd2565b60405180910390fd5b80600a60003373ffffffffffffffffffffffffffffffffffffffff1673ffffffffffffffffffffffffffffffffffffffff1681526020019081526020016000206000828254610b3991906118c5565b925050819055503373ffffffffffffffffffffffffffffffffffffffff167fb539ca1e5c8d398ddf1c41c30166f33404941683be4683319b57669a93dad4ef82604051610b869190611680565b60405180910390a2600060075482610b9e9190611cf2565b9050610baa3382611323565b3373ffffffffffffffffffffffffffffffffffffffff167f3f2c9d57c068687834f0de942a9babb9e5acab57d516d3480a3c16ee165a427382604051610bf09190611680565b60405180910390a25050565b6000600160008473ffffffffffffffffffffffffffffffffffffffff1673ffffffffffffffffffffffffffffffffffffffff16815260200190815260200160002060008373ffffffffffffffffffffffffffffffffffffffff1673ffffffffffffffffffffffffffffffffffffffff16815260200190815260200160002054905092915050565b60095481565b610c916111df565b600073ffffffffffffffffffffffffffffffffffffffff168173ffffffffffffffffffffffffffffffffffffffff1603610d00576040517f08c379a0000000000000000000000000000000000000000000000000000000008152600401610cf790611da6565b60405180910390fd5b610d098161125d565b50565b600033905090565b600073ffffffffffffffffffffffffffffffffffffffff168373ffffffffffffffffffffffffffffffffffffffff1603610d83576040517f08c379a0000000000000000000000000000000000000000000000000000000008152600401610d7a90611e38565b60405180910390fd5b600073ffffffffffffffffffffffffffffffffffffffff168273ffffffffffffffffffffffffffffffffffffffff1603610df2576040517f08c379a0000000000000000000000000000000000000000000000000000000008152600401610de990611eca565b60405180910390fd5b80600160008573ffffffffffffffffffffffffffffffffffffffff1673ffffffffffffffffffffffffffffffffffffffff16815260200190815260200160002060008473ffffffffffffffffffffffffffffffffffffffff1673ffffffffffffffffffffffffffffffffffffffff168152602001908152602001600020819055508173ffffffffffffffffffffffffffffffffffffffff168373ffffffffffffffffffffffffffffffffffffffff167f8c5be1e5ebec7d5bd14f71427d1e84f3dd0314c0f7b2291e5b200ac8c7c3b92583604051610ed09190611680565b60405180910390a3505050565b6000610ee98484610bfc565b90507fffffffffffffffffffffffffffffffffffffffffffffffffffffffffffffffff8114610f635781811015610f55576040517f08c379a0000000000000000000000000000000000000000000000000000000008152600401610f4c90611f36565b60405180910390fd5b610f628484848403610d14565b5b50505050565b600073ffffffffffffffffffffffffffffffffffffffff168373ffffffffffffffffffffffffffffffffffffffff1603610fd8576040517f08c379a0000000000000000000000000000000000000000000000000000000008152600401610fcf90611fc8565b60405180910390fd5b600073ffffffffffffffffffffffffffffffffffffffff168273ffffffffffffffffffffffffffffffffffffffff1603611047576040517f08c379a000000000000000000000000000000000000000000000000000000000815260040161103e9061205a565b60405180910390fd5b611052838383611479565b60008060008573ffffffffffffffffffffffffffffffffffffffff1673ffffffffffffffffffffffffffffffffffffffff168152602001908152602001600020549050818110156110d8576040517f08c379a00000000000000000000000000000000000000000000000000000000081526004016110cf906120ec565b60405180910390fd5b8181036000808673ffffffffffffffffffffffffffffffffffffffff1673ffffffffffffffffffffffffffffffffffffffff16815260200190815260200160002081905550816000808573ffffffffffffffffffffffffffffffffffffffff1673ffffffffffffffffffffffffffffffffffffffff168152602001908152602001600020600082825401925050819055508273ffffffffffffffffffffffffffffffffffffffff168473ffffffffffffffffffffffffffffffffffffffff167fddf252ad1be2c89b69c2b068fc378daa952ba7f163c4a11628f55a4df523b3ef846040516111c69190611680565b60405180910390a36111d984848461147e565b50505050565b6111e7610d0c565b73ffffffffffffffffffffffffffffffffffffffff166112056105ea565b73ffffffffffffffffffffffffffffffffffffffff161461125b576040517f08c379a000000000000000000000000000000000000000000000000000000000815260040161125290612158565b60405180910390fd5b565b6000600560009054906101000a900473ffffffffffffffffffffffffffffffffffffffff16905081600560006101000a81548173ffffffffffffffffffffffffffffffffffffffff021916908373ffffffffffffffffffffffffffffffffffffffff1602179055508173ffffffffffffffffffffffffffffffffffffffff168173ffffffffffffffffffffffffffffffffffffffff167f8be0079c531659141344cd1fd0a4f28419497f9722a3daafe3b4186f6b6457e060405160405180910390a35050565b600073ffffffffffffffffffffffffffffffffffffffff168273ffffffffffffffffffffffffffffffffffffffff1603611392576040517f08c379a0000000000000000000000000000000000000000000000000000000008152600401611389906121c4565b60405180910390fd5b61139e60008383611479565b80600260008282546113b091906118c5565b92505081905550806000808473ffffffffffffffffffffffffffffffffffffffff1673ffffffffffffffffffffffffffffffffffffffff168152602001908152602001600020600082825401925050819055508173ffffffffffffffffffffffffffffffffffffffff16600073ffffffffffffffffffffffffffffffffffffffff167fddf252ad1be2c89b69c2b068fc378daa952ba7f163c4a11628f55a4df523b3ef836040516114619190611680565b60405180910390a36114756000838361147e565b5050565b505050565b505050565b600081519050919050565b600082825260208201905092915050565b60005b838110156114bd5780820151818401526020810190506114a2565b60008484015250505050565b6000601f19601f8301169050919050565b60006114e582611483565b6114ef818561148e565b93506114ff81856020860161149f565b611508816114c9565b840191505092915050565b6000602082019050818103600083015261152d81846114da565b905092915050565b600080fd5b600073ffffffffffffffffffffffffffffffffffffffff82169050919050565b60006115658261153a565b9050919050565b6115758161155a565b811461158057600080fd5b50565b6000813590506115928161156c565b92915050565b6000819050919050565b6115ab81611598565b81146115b657600080fd5b50565b6000813590506115c8816115a2565b92915050565b600080604083850312156115e5576115e4611535565b5b60006115f385828601611583565b9250506020611604858286016115b9565b9150509250929050565b60008115159050919050565b6116238161160e565b82525050565b600060208201905061163e600083018461161a565b92915050565b60006020828403121561165a57611659611535565b5b600061166884828501611583565b91505092915050565b61167a81611598565b82525050565b60006020820190506116956000830184611671565b92915050565b6000806000606084860312156116b4576116b3611535565b5b60006116c286828701611583565b93505060206116d386828701611583565b92505060406116e4868287016115b9565b9150509250925092565b600060ff82169050919050565b611704816116ee565b82525050565b600060208201905061171f60008301846116fb565b92915050565b6000819050919050565b600061174a6117456117408461153a565b611725565b61153a565b9050919050565b600061175c8261172f565b9050919050565b600061176e82611751565b9050919050565b61177e81611763565b82525050565b60006020820190506117996000830184611775565b92915050565b6117a88161155a565b82525050565b60006020820190506117c3600083018461179f565b92915050565b6000602082840312156117df576117de611535565b5b60006117ed848285016115b9565b91505092915050565b6000806040838503121561180d5761180c611535565b5b600061181b85828601611583565b925050602061182c85828601611583565b9150509250929050565b7f4e487b7100000000000000000000000000000000000000000000000000000000600052602260045260246000fd5b6000600282049050600182168061187d57607f821691505b6020821081036118905761188f611836565b5b50919050565b7f4e487b7100000000000000000000000000000000000000000000000000000000600052601160045260246000fd5b60006118d082611598565b91506118db83611598565b92508282019050808211156118f3576118f2611896565b5b92915050565b7f45524332303a2064656372656173656420616c6c6f77616e63652062656c6f7760008201527f207a65726f000000000000000000000000000000000000000000000000000000602082015250565b600061195560258361148e565b9150611960826118f9565b604082019050919050565b6000602082019050818103600083015261198481611948565b9050919050565b7f546f6b656e7320617265206c6f636b656420756e74696c20746865207370656360008201527f6966696564206461746500000000000000000000000000000000000000000000602082015250565b60006119e7602a8361148e565b91506119f28261198b565b604082019050919050565b60006020820190508181036000830152611a16816119da565b9050919050565b7f4e6f20746f6b656e7320746f2077697468647261770000000000000000000000600082015250565b6000611a5360158361148e565b9150611a5e82611a1d565b602082019050919050565b60006020820190508181036000830152611a8281611a46565b9050919050565b6000604082019050611a9e600083018561179f565b611aab6020830184611671565b9392505050565b611abb8161160e565b8114611ac657600080fd5b50565b600081519050611ad881611ab2565b92915050565b600060208284031215611af457611af3611535565b5b6000611b0284828501611ac9565b91505092915050565b7f5769746864726177207472616e73666572206661696c65640000000000000000600082015250565b6000611b4160188361148e565b9150611b4c82611b0b565b602082019050919050565b60006020820190508181036000830152611b7081611b34565b9050919050565b7f5374616b696e6720706572696f642068617320656e6465640000000000000000600082015250565b6000611bad60188361148e565b9150611bb882611b77565b602082019050919050565b60006020820190508181036000830152611bdc81611ba0565b9050919050565b7f4c6f636b20706572696f642068617320656e6465640000000000000000000000600082015250565b6000611c1960158361148e565b9150611c2482611be3565b602082019050919050565b60006020820190508181036000830152611c4881611c0c565b9050919050565b6000606082019050611c64600083018661179f565b611c71602083018561179f565b611c7e6040830184611671565b949350505050565b7f5374616b65207472616e73666572206661696c65640000000000000000000000600082015250565b6000611cbc60158361148e565b9150611cc782611c86565b602082019050919050565b60006020820190508181036000830152611ceb81611caf565b9050919050565b6000611cfd82611598565b9150611d0883611598565b9250828202611d1681611598565b91508282048414831517611d2d57611d2c611896565b5b5092915050565b7f4f776e61626c653a206e6577206f776e657220697320746865207a65726f206160008201527f6464726573730000000000000000000000000000000000000000000000000000602082015250565b6000611d9060268361148e565b9150611d9b82611d34565b604082019050919050565b60006020820190508181036000830152611dbf81611d83565b9050919050565b7f45524332303a20617070726f76652066726f6d20746865207a65726f2061646460008201527f7265737300000000000000000000000000000000000000000000000000000000602082015250565b6000611e2260248361148e565b9150611e2d82611dc6565b604082019050919050565b60006020820190508181036000830152611e5181611e15565b9050919050565b7f45524332303a20617070726f766520746f20746865207a65726f20616464726560008201527f7373000000000000000000000000000000000000000000000000000000000000602082015250565b6000611eb460228361148e565b9150611ebf82611e58565b604082019050919050565b60006020820190508181036000830152611ee381611ea7565b9050919050565b7f45524332303a20696e73756666696369656e7420616c6c6f77616e6365000000600082015250565b6000611f20601d8361148e565b9150611f2b82611eea565b602082019050919050565b60006020820190508181036000830152611f4f81611f13565b9050919050565b7f45524332303a207472616e736665722066726f6d20746865207a65726f20616460008201527f6472657373000000000000000000000000000000000000000000000000000000602082015250565b6000611fb260258361148e565b9150611fbd82611f56565b604082019050919050565b60006020820190508181036000830152611fe181611fa5565b9050919050565b7f45524332303a207472616e7366657220746f20746865207a65726f206164647260008201527f6573730000000000000000000000000000000000000000000000000000000000602082015250565b600061204460238361148e565b915061204f82611fe8565b604082019050919050565b6000602082019050818103600083015261207381612037565b9050919050565b7f45524332303a207472616e7366657220616d6f756e742065786365656473206260008201527f616c616e63650000000000000000000000000000000000000000000000000000602082015250565b60006120d660268361148e565b91506120e18261207a565b604082019050919050565b60006020820190508181036000830152612105816120c9565b9050919050565b7f4f776e61626c653a2063616c6c6572206973206e6f7420746865206f776e6572600082015250565b600061214260208361148e565b915061214d8261210c565b602082019050919050565b6000602082019050818103600083015261217181612135565b9050919050565b7f45524332303a206d696e7420746f20746865207a65726f206164647265737300600082015250565b60006121ae601f8361148e565b91506121b982612178565b602082019050919050565b600060208201905081810360008301526121dd816121a1565b905091905056fea2646970667358221220bdf9a88944d2884965e7dacc6cd3a815a9d32c86707a391b98d983b43955a1d864736f6c63430008140033",
  "linkReferences": {},
  "deployedLinkReferences": {}
}